:10000000D2C00000FEC00000FCC00000FAC000002A
:10001000F8C00000F6C00000F4C00000F2C000000C
:10002000F0C00000EEC00000ECC00000EAC000001C
:10003000E8C00000E6C00000E4C00000E2C000002C
:10004000E0C00000DEC00000DCC00000DAC000003C
:10005000D8C00000D6C00000D4C00000B2C200006A
:10006000D0C0000078C200004DC20000CAC000002D
:10007000C8C00000C6C00000C4C00000C2C000006C
:10008000C0C00000BEC00000BCC00000BAC000007C
:10009000B8C00000B6C00000B4C00000B2C000008C
:1000A000B0C00000AEC00000ACC00000AAC000009C
:1000B000A8C00000A6C00000A4C00000A2C00000AC
:1000C000A0C000009EC000009CC000009AC00000BC
:1000D00098C0000096C0000094C0000092C00000CC
:1000E00090C0000000002200250028002B002E00F8
:1000F0003100340002010000050108010B0100007D
:100100002100240027002A002D00300033000101C7
:100110000000040107010A01050505050705080897
:100120000808020202020A0A080804040404010181
:100130000101010101010303030303030303040796
:1001400007070C0C0C0C0C0C0C0C0202020206062D
:100150000606060606060B0B0B0B0B0B0B0B010220
:1001600010202008081020401020408002010201C9
:100170000804020101020408102040808040201081
:1001800008040201800402018040201008040201DA
:100190000804020101020408102040800102040842
:1001A00010204080690411241FBECFEFD1E2DEBFD2
:1001B000CDBF00E00CBF12E0A0E0B2E0E8E4F9E05F
:1001C00000E00BBF02C007900D92A232B107D9F731
:1001D00022E0A2E2B2E001C01D92AF3FB207E1F718
:1001E00010E0C3EDD0E000E005C021970109802FA9
:1001F000FE019CD3C23DD10780E00807B1F72BD2A6
:10020000A1C3FECECF92DF92EF92FF920F931F9386
:10021000CF93DF936C017A018B01C0E0D0E0CE1563
:10022000DF0589F0D8016D918D01D601ED91FC912A
:100230000190F081E02DC6011995892B11F47E0102
:1002400002C02196ECCFC701DF91CF911F910F9192
:10025000FF90EF90DF90CF900895FC01918D828DFB
:10026000981761F0828DDF01A80FB11D5D968C910A
:10027000928D9F5F9F73928F90E008958FEF9FEF15
:100280000895FC01918D828D981731F0828DE80FD1
:10029000F11D858D90E008958FEF9FEF0895FC018B
:1002A000918D228D892F90E0805C9F4F821B910958
:1002B0008F73992708958BE292E0F1DF21E0892B7B
:1002C00009F420E0822F0895FC01848DDF01A80F3E
:1002D000B11DA35ABF4F2C91848D90E001968F736E
:1002E0009927848FA689B7892C93A089B1898C918D
:1002F00080648C93938D848D981306C00288F38953
:10030000E02D80818F7D80830895EF92FF920F937F
:100310001F93CF93DF93EC0181E0888F9B8D8C8DB1
:10032000981305C0E889F989808185FD23C0F62EE0
:100330000B8D10E00F5F1F4F0F731127E02E8C8D78
:10034000E8120BC00FB607FCFACFE889F989808163
:1003500085FFF5CFCE01B8DFF2CF8B8DFE01E80F20
:10036000F11DE35AFF4FF0820B8FEA89FB898081F0
:10037000806207C0EE89FF896083E889F9898081FE
:100380008064808381E090E0DF91CF911F910F9195
:10039000FF90EF900895CF93DF93EC01888D882331
:1003A000C1F0EA89FB89808185FD05C0A889B989EA
:1003B0008C9186FD0EC00FB607FCF5CF808185FFBE
:1003C000F2CFA889B9898C9185FFEDCFCE017CDF72
:1003D000E8CFDF91CF91089580E090E0892B19F06C
:1003E0006ADF811125C080E090E0892B41F080E038
:1003F00090E0892B21F00E94000081111CC080E058
:1004000090E0892B41F080E090E0892B21F00E9460
:100410000000811113C080E090E0892BA1F080E002
:1004200090E0892B81F00E94000081110AC008959C
:100430000E940000D8CF0E940000E1CF0E9400007F
:10044000EACF0C94000008953FB7F89480912302FE
:1004500090912402A0912502B091260226B5A89B76
:1004600005C02F3F19F00196A11DB11D3FBFBA2F46
:10047000A92F982F8827820F911DA11DB11DBC01A6
:10048000CD0142E0660F771F881F991F4A95D1F76B
:1004900008958F929F92AF92BF92CF92DF92EF9288
:1004A000FF926B017C01D0DF4B015C01C114D104D0
:1004B000E104F104E9F0C8DFDC01CB0188199909F6
:1004C000AA09BB09883E9340A105B10578F321E054
:1004D000C21AD108E108F10888EE880E83E0981E60
:1004E000A11CB11CC114D104E104F10421F7DECF39
:1004F000FF90EF90DF90CF90BF90AF909F908F9044
:1005000008951CD21F920F920FB60F9211240BB6B2
:100510000F922F933F934F935F936F937F938F939C
:100520009F93AF93BF93EF93FF938BE292E0CCDE68
:10053000FF91EF91BF91AF919F918F917F916F91BB
:100540005F914F913F912F910F900BBE0F900FBE77
:100550000F901F9018951F920F920FB60F921124B3
:100560000BB60F922F938F939F93EF93FF93E0918E
:100570003B02F0913C028081E0914102F091420205
:1005800082FD12C09081809144028F5F8F73209111
:100590004502821751F0E0914402F0E0E55DFD4F25
:1005A000958F8093440201C08081FF91EF919F91CC
:1005B0008F912F910F900BBE0F900FBE0F901F9039
:1005C00018951F920F920FB60F9211242F933F93FD
:1005D0008F939F93AF93BF938091270290912802AE
:1005E000A0912902B0912A023091220223E0230F28
:1005F0002D3720F40196A11DB11D05C026E8230F5B
:100600000296A11DB11D2093220280932702909390
:100610002802A0932902B0932A028091230290918C
:100620002402A0912502B09126020196A11DB11DC0
:100630008093230290932402A0932502B093260274
:10064000BF91AF919F918F913F912F910F900FBECE
:100650000F901F901895789484B5826084BD84B5FE
:10066000816084BD85B5826085BD85B5816085BDAD
:1006700080916E00816080936E0010928100809165
:1006800081008260809381008091810081608093ED
:100690008100809180008160809380008091B10012
:1006A00084608093B1008091B00081608093B0003D
:1006B000809191008260809391008091910081608F
:1006C0008093910080919000816080939000809150
:1006D000A10082608093A1008091A100816080933D
:1006E000A1008091A00081608093A00080912101F1
:1006F000826080932101809121018160809321019A
:100700008091200181608093200180917A00846033
:1007100080937A0080917A00826080937A00809141
:100720007A00816080937A0080917A00806880935B
:100730007A001092C1001092FB021092FC021092FB
:10074000FD021092FE021092C9021092CA0210928B
:10075000CB021092CC0260ED77E080E090E099DE71
:100760008BE292E09093FA028093F902E0913B02CF
:10077000F0913C0282E08083E0913702F0913802F0
:100780001082E0913902F0913A0280E18083109268
:100790004302E0913F02F091400286E08083E091C5
:1007A0003D02F0913E02808180618083E0913D02B4
:1007B000F0913E02808188608083E0913D02F0915B
:1007C0003E02808180688083E0913D02F0913E028C
:1007D00080818F7D80832FB7F8948091270290913C
:1007E0002802A0912902B0912A022FBF4091C9028C
:1007F0005091CA026091CB027091CC02841B950B80
:10080000A60BB70BC297A105B10530F463E070E009
:1008100080E090E03EDEDFCF2FB7F8948091270292
:1008200090912802A0912902B0912A022FBF8093B3
:10083000C9029093CA02A093CB02B093CC028091DC
:10084000F9029091FA02DC01ED91FC910280F381B2
:10085000E02D41E150E060E172E019956AE070E05E
:1008600080E090E016DE81E08093CD02E9E6F1E0E1
:100870002491E3E2F1E08491882399F090E0880FDD
:10088000991FFC01E250FF4FA591B491FC01EC517E
:10089000FF4F859194918FB7F894EC91E22BEC93F4
:1008A0008FBF80918000826480938000809181005E
:1008B00089618093810084E890E090938700809321
:1008C000860082E490E0909389008093880084DD24
:1008D000FECFEBE2F2E01382128288EE93E0A0E01A
:1008E000B0E084839583A683B78384E092E091830C
:1008F000808385EC90E09587848784EC90E09787EF
:10090000868780EC90E0918B808B81EC90E0938BDC
:10091000828B82EC90E0958B848B86EC90E0978BB9
:10092000868B118E128E138E148E0895EE0FFF1F7C
:10093000881F8BBF0790F691E02D199481E090E01D
:08094000F89400C0F894FFCF09
:1009480000000000850102014F012D014101CB018A
:10095800564D4450565F317C315F564D4450560DCC
:020968000A0083
:00000001FF
