:1000000014C1000040C100003EC100003CC100001E
:100010003AC1000038C1000036C1000034C1000000
:1000200032C1000030C100002EC100002CC1000010
:100030002AC1000028C1000026C1000024C1000020
:1000400022C1000020C100001EC100001CC1000030
:100050001AC1000018C1000016C1000082C30000D0
:1000600012C1000048C300001DC300000CC1000005
:100070000AC1000008C1000006C1000004C1000060
:1000800002C1000000C10000FEC00000FCC0000072
:10009000FAC00000F8C00000F6C00000F4C0000084
:1000A000F2C00000F0C00000EEC00000ECC0000094
:1000B000EAC00000E8C00000E6C00000E4C00000A4
:1000C000E2C00000E0C00000DEC00000DCC00000B4
:1000D000DAC00000D8C00000D6C00000D4C00000C4
:1000E000D2C0000093029602850289028D02CD02E1
:1000F0009A029E02A402A802AC02B202B602BA029E
:10010000CD02C002C402C802000020002300260065
:1001100029002C002F00320000010000030106011D
:10012000090100000A0B02090C0D0E080703040167
:1001300000000000000000000000000000000000BF
:10014000000000000000000000000000000012118C
:10015000100000000000000000000000000000008F
:100160000000000000000000000022002500280020
:100170002B002E00310034000201000005010801AF
:100180000B0100002100240027002A002D00300070
:10019000330001010000040107010A0105050505FE
:1001A000070508080808020202020A0A08080404EF
:1001B000040401010101010101010303030303031D
:1001C0000303040707070C0C0C0C0C0C0C0C0202AC
:1001D000020206060606060606060B0B0B0B0B0BA9
:1001E0000B0B010210202008081020401020408036
:1001F00002010201080402010102040810204080EB
:100200008040201008040201800402018040201078
:1002100008040201080402010102040810204080C1
:100220000102040810204080760511241FBECFEF84
:10023000D1E2DEBFCDBF00E00CBF12E0A0E0B2E033
:10024000E2E6FBE000E00BBF02C007900D92AE3388
:10025000B107D9F723E0AEE3B2E001C01D92AB31A4
:10026000B207E1F711E0C5E1D1E000E005C0219758
:100270000109802FFE0167D4C431D10780E008074F
:10028000B1F7B9D26CC4BCCECF92DF92EF92FF929D
:100290000F931F93CF93DF936C017A018B01C0E022
:1002A000D0E0CE15DF0589F0D8016D918D01D60122
:1002B000ED91FC910190F081E02DC6011995892BFB
:1002C00011F47E0102C02196ECCFC701DF91CF91DE
:1002D0001F910F91FF90EF90DF90CF900895FC0158
:1002E000918D828D981761F0828DDF01A80FB11D6D
:1002F0005D968C91928D9F5F9F73928F90E0089591
:100300008FEF9FEF0895FC01918D828D981731F04A
:10031000828DE80FF11D858D90E008958FEF9FEF9E
:100320000895FC01918D228D892F90E0805C9F4F74
:10033000821B91098F73992708958EE792E0F1DF70
:1003400021E0892B09F420E0822F0895FC01848D9F
:10035000DF01A80FB11DA35ABF4F2C91848D90E0EF
:1003600001968F739927848FA689B7892C93A089CA
:10037000B1898C9180648C93938D848D981306C081
:100380000288F389E02D80818F7D80830895EF922C
:10039000FF920F931F93CF93DF93EC0181E0888F3F
:1003A0009B8D8C8D981305C0E889F989808185FD26
:1003B00023C0F62E0B8D10E00F5F1F4F0F73112718
:1003C000E02E8C8DE8120BC00FB607FCFACFE8893F
:1003D000F989808185FFF5CFCE01B8DFF2CF8B8D13
:1003E000FE01E80FF11DE35AFF4FF0820B8FEA89FF
:1003F000FB898081806207C0EE89FF896083E8897C
:10040000F98980818064808381E090E0DF91CF91E1
:100410001F910F91FF90EF900895CF93DF93EC0120
:10042000888D8823C1F0EA89FB89808185FD05C01C
:10043000A889B9898C9186FD0EC00FB607FCF5CF4F
:10044000808185FFF2CFA889B9898C9185FFEDCF96
:10045000CE017CDFE8CFDF91CF91089580E090E07E
:10046000892B19F06ADF811125C080E090E0892B8B
:1004700041F080E090E0892B21F00E940000811182
:100480001CC080E090E0892B41F080E090E0892B57
:1004900021F00E940000811113C080E090E0892BC0
:1004A000A1F080E090E0892B81F00E940000811192
:1004B0000AC008950E940000D8CF0E940000E1CF3A
:1004C0000E940000EACF0C940000089590E0FC0127
:1004D000EE5DFE4F4491FC01EE51FE4F2491FC0174
:1004E000E456FE4F9491992309F466C0442309F41D
:1004F00054C050E0FA013197E231F10508F04DC0E7
:100500008827EE58FF4F8F4F1EC3809180008F7752
:1005100007C0809180008F7D03C080918000877F1D
:10052000809380003AC084B58F7702C084B58F7DF8
:1005300084BD33C08091B0008F7703C08091B0003C
:100540008F7D8093B00029C0809190008F7707C085
:10055000809190008F7D03C080919000877F809371
:1005600090001BC08091A0008F7707C08091A000F1
:100570008F7D03C08091A000877F8093A0000DC075
:10058000809120018F7707C0809120018F7D03C06B
:1005900080912001877F80932001E92FF0E0EE0F0A
:1005A000FF1FE85FFE4FA591B491EC912E2381E0EF
:1005B00090E021F480E0089580E090E008953FB756
:1005C000F89480913F0290914002A0914102B09135
:1005D000420226B5A89B05C02F3F19F00196A11D28
:1005E000B11D3FBFBA2FA92F982F8827820F911DC9
:1005F000A11DB11DBC01CD0142E0660F771F881F10
:10060000991F4A95D1F708958F929F92AF92BF920A
:10061000CF92DF92EF92FF926B017C01D0DF4B0112
:100620005C01C114D104E104F104E9F0C8DFDC018C
:10063000CB0188199909AA09BB09883E9340A105F5
:10064000B10578F321E0C21AD108E108F10888EE7B
:10065000880E83E0981EA11CB11CC114D104E104D2
:10066000F10421F7DECFFF90EF90DF90CF90BF90A5
:10067000AF909F908F9008956ED26115710579F0BB
:10068000FB0101900020E9F73197AF01461B570BA2
:10069000DC01ED91FC910280F381E02D199480E062
:1006A00090E008951F920F920FB60F9211240BB68F
:1006B0000F922F933F934F935F936F937F938F93FB
:1006C0009F93AF93BF93EF93FF938EE792E03EDE4D
:1006D000FF91EF91BF91AF919F918F917F916F911A
:1006E0005F914F913F912F910F900BBE0F900FBED6
:1006F0000F901F9018951F920F920FB60F92112412
:100700000BB60F922F938F939F93EF93FF93E091EC
:100710008E02F0918F028081E0919402F091950217
:1007200082FD12C09081809197028F5F8F7320911C
:100730009802821751F0E0919702F0E0E258FD4FE5
:10074000958F8093970201C08081FF91EF919F91D7
:100750008F912F910F900BBE0F900FBE0F901F9097
:1007600018951F920F920FB60F9211242F933F935B
:100770008F939F93AF93BF938091430290914402D4
:10078000A0914502B091460230913E0223E0230F32
:100790002D3720F40196A11DB11D05C026E8230FB9
:1007A0000296A11DB11D20933E02809343029093B7
:1007B0004402A0934502B093460280913F0290917B
:1007C0004002A0914102B09142020196A11DB11DCB
:1007D00080933F0290934002A0934102B093420263
:1007E000BF91AF919F918F913F912F910F900FBE2D
:1007F0000F901F901895789484B5826084BD84B55D
:10080000816084BD85B5826085BD85B5816085BD0B
:1008100080916E00816080936E00109281008091C3
:10082000810082608093810080918100816080934B
:100830008100809180008160809380008091B10070
:1008400084608093B1008091B00081608093B0009B
:1008500080919100826080939100809191008160ED
:1008600080939100809190008160809390008091AE
:10087000A10082608093A1008091A100816080939B
:10088000A1008091A00081608093A000809121014F
:1008900082608093210180912101816080932101F8
:1008A0008091200181608093200180917A00846092
:1008B00080937A0080917A00826080937A008091A0
:1008C0007A00816080937A0080917A0080688093BA
:1008D0007A001092C10010927A0210927B0210925C
:1008E0007C0210927D0210924802109249021092EE
:1008F0004A0210924B0260ED77E080E090E084DEE7
:100900008EE792E09093790280937802E0918E02D4
:10091000F0918F0282E08083E0918A02F0918B0255
:100920001082E0918C02F0918D0280E18083109220
:100930009602E0919202F091930286E08083E0912A
:100940009002F0919102808180618083E091900219
:10095000F0919102808188608083E0919002F09113
:100960009102808180688083E0919002F0919102F1
:1009700080818F7D80832FB7F8948091430290917E
:100980004402A0914502B09146022FBF4091480217
:100990005091490260914A0270914B02841B950B61
:1009A000A60BB70BC297A105B10530F463E070E068
:1009B00080E090E029DEDFCF2FB7F89480914302EA
:1009C00090914402A0914502B09146022FBF8093BE
:1009D000480290934902A0934A02B0934B0260E10F
:1009E00072E0809178029091790247DE6AE070E0CF
:1009F00080E090E009DE81E080934C02E2EEF1E0DD
:100A00002491ECE9F1E084918823C1F090E0880F13
:100A1000991FFC01EE57FE4FC591D491FC01E85996
:100A2000FE4FA591B4919FB7F8948881E22FE0958D
:100A30008E2388838C91E823EC939FBFEDEEF1E049
:100A40002491E7EAF1E08491882399F090E0880FFF
:100A5000991FFC01EE57FE4FA591B491FC01E85996
:100A6000FE4F859194918FB7F894EC91E22BEC9323
:100A70008FBF82E08093800089E18093810084E8C9
:100A800090E0909387008093860082E490E09093BA
:100A9000890080938800C0E480E018DD019759F454
:100AA00062E272E08EE792E0E8DD6FE172E08EE7ED
:100AB00092E0E3DDF1CF80E009DD892BA9F462E368
:100AC00072E08EE792E0D9DD6FE172E08EE792E0AE
:100AD000D4DDC09380008FE99FE00197F1F700C05B
:100AE000000010928000E7CFB9DCD6CFEEE7F2E04D
:100AF0001382128288EE93E0A0E0B0E084839583B5
:100B0000A683B78384E092E09183808385EC90E0B4
:100B10009587848784EC90E09787868780EC90E0C7
:100B2000918B808B81EC90E0938B828B82EC90E0B8
:100B3000958B848B86EC90E0978B868B118E128E32
:100B4000138E148E0895EE0FFF1F881F8BBF079022
:100B5000F691E02D199481E090E0F89400C0F894AB
:020B6000FFCFC5
:100B620000000000C701440191016F0183010D02E1
:100B7200564D4450565F317C315F564D4450560DB0
:100B82000A004E6F205A65726F2043726F73732191
:0E0B920021005A65726F2043726F7373210049
:00000001FF
